:100E1F0041444320436F6E6E656374696E67004192
:090E2F0044432056616C75650016
:100CDF00021D00000C1FB61DC1C13F7FFFB1B61D25
:100CEF00C1C10C2B3EA721473EB1BD713EA7214785
:100CFF000C11B69DC26C3F80004FB69DC26C024373
:0E0D0F000000040D000000000445000000007C
:03000B00020E42A0
:030E4200B2B73212
:100C9E00C291D2927F017E00120CBFC2920F120C33
:100CAE00BFE9C454F0FFE590540F4FF590D2927FF8
:010CBE000134
:100CBF00E4FDFCC3ED9FEC9E5015E4FBFA0BBB006B
:0F0CCF00010AEB64704A70F50DBD00010C80E462
:010CDE0022F3
:100DCD00E4FDFCC3ED9FEC9E5015E4FBFA0BBB005C
:0F0DDD00010AEB64014A70F50DBD00010C80E4C2
:010DEC0022E4
:100DAC00E4F51DF51ED2B3D2B27F50FE120DCDC2AA
:100DBC00B3C2B220B1FD30B1FDAF80751D008F1EE6
:010DCC002204
:100DED00A907E954F0FFE590540F4FF590C290120A
:090DFD000C9EC2927F05020CBF9E
:100E0600A907E954F0FFE590540F4FF590D29012E0
:090E16000C9EC2927F05020CBF84
:060D57008B4E8A4F89500B
:100D5D00E4F551F552AB4EAA4FA9508552828551FB
:100D6D0083120ABDFFFD3395E04D600D120E060591
:090D7D0052E55270E0055180DCE2
:010D8600224A
:100D1E008F498D4A8B4B8A4C894DEF3395E04F703E
:100D2E0008E54A540F44808013AF49EF3395E0FE37
:100D3E00EF64014E700AE54A540F44C0FF120DEDE8
:090D4E00AB4BAA4CA94D020D5754
:100D87007F147E00120CBF7F02120DED7F28120D1B
:100D9700ED7F0C120DED7F06120DED7F01120DEDAB
:050DA7007F80020DED4C
:0A0E38007F01120DED7F80020DED29
:010E4500228A
:100B1D00120D87D2B1C2B3C2B0C2B27BFF7A0E79C9
:100B2D001F120D577FF47E01120CBF120E387BFF82
:100B3D007A0E792E120D57E4F543F544120DACAC37
:100B4D001DAD1EEC120A03E54425E025E02437F81F
:100B5D00120B110544E54470020543C39403E543AC
:100B6D006480948040D6E4F543F544AB10AA0FA9F8
:100B7D000EA80DC000C001C002C003AF44C3740273
:100B8D009F25E025E02437F8120B04C000EF25E087
:100B9D0025E02411F8120AF8D0001208F8D003D07D
:100BAD0002D001D0001208078F108E0F8D0E8C0D04
:100BBD000544E544700205436403454370AD120DD1
:100BCD00AC854248854147854046853F45853E4237
:100BDD00853D41853C40853B3F853A3E85393D8588
:100BED00383C85373BAC1DAD1EEC120A038F3A8E97
:100BFD00398D388C37AF10AE0FAD0EAC0D120A3CDF
:050C0D008FA0020B4462
:10080000020AA8E86480F8E933E83360110460F074
:10081000ED33EC337009E8FCE9FDEAFEEBFF22045E
:1008200060DED3EB9FEA9EE99DE8C2E78CF0C2F759
:1008300095F0400CE8CCF8E9CDF9EACEFAEBCFFB25
:10084000120A7385D0F05804700320D5B3E8047001
:10085000075002B2D5020AB292D5EC0460F7E4CC9C
:10086000C0E0C398F8603B94186008400DD0E0FBEE
:10087000020A8AE4FBFAC9FC8028E830E406E4C9ED
:10088000FBE4CAFCE830E305E4C9CACBFCE8540742
:100890006010F8C3E913F9EA13FAEB13FBEC13FC4D
:1008A000D8F130F52FC3E49CFCEF9BFFEE9AFEEDF0
:1008B00099FDD0E0FBEF4E4D4C701222DB03020A93
:1008C000AFEC2CFCEF33FFEE33FEED33FDED30E704
:1008D000EB020A8AEF2BFFEE3AFEED39FDD0E0FB8A
:1008E00050130BBB0003020AB2ED13FDEE13FEEF33
:0808F00013FFEC13FC020A8A5D
:1008F800EC4D6011E8497017ED33EC3304600DE4FA
:10090800FCFFFEFD22E933E8330470F8020AA8125E
:100918000A7358046009E4CC24815006285009025F
:100928000AB2284003020AAFC0E0EB4A7044B9801B
:1009380006D0E0FB020A9EEF4E701CBD8008EBFF5C
:10094800EAFEE9FD80EBE98DF0A4FEE5F00209E19D
:10095800E9CDF9EAFEEBFFEF89F0A4FCE5F0CE89DA
:10096800F0A42EFFE435F0CD89F0A42DFEE435F097
:100978008067EF4E7005BD80D780C3EF8BF0A4ACC5
:10098800F0EE8BF0A42CFCE435F0F8EF8AF0A42C00
:10099800E5F038FCE433CB8DF0A42CFCE5F03BF813
:1009A800EE8AF0A42CFCE5F038F8E433CF89F0A403
:1009B8002CFCE5F038CF3400CE89F0A42FFFE5F009
:1009C8003EFEE433C98DF0A42EFEE5F039CD8AF061
:1009D800A42FFFE5F03EFEE43DFD33D0E0FB5007D9
:1009E8000BBB000F020AB2EC2CFCEF33FFEE33FE18
:0609F800ED33FD020A8A46
:1009FE0075F020800E75F010800575F0087D007E74
:100A0E00007F003392D530D503120AEAEC33401042
:100A1E00EF33FFEE33FEED33FDEC33FCD5F0ED227C
:0E0A2E00E5F0247EA2D513CC92E7CDCEFF22B8
:100A3C00EDD2E7CD33EC3392D524814006E4FFFEB2
:100A4C00FDFC22FCE4CFCECDCC24E0501174FF8011
:100A5C00EDC3CC13CCCD13CDCE13CECF13CF0470AE
:070A6C00F030D5DE020AEABA
:100A7300E9D2E7C933E833F892D5EDD2E7CD33ECC9
:070A830033FC5002B2D52242
:100A8A00EC30E7100FBF000C0EBE00080DBD0004CD
:100A9A000BEB6014A2D5EB13FCED92E7FD2274FF79
:100AAA00FCFDFEFF22E480F8A2D574FF13FC7D80D2
:030ABA00E480EFE6
:03000000020C12DD
:0C0C1200787FE4F6D8FD758152020C5981
:100ABD00BB010CE58229F582E5833AF583E02250EE
:100ACD0006E92582F8E622BBFE06E92582F8E22238
:0D0ADD00E58229F582E5833AF583E4932252
:0E0AEA00C3E49FFFE49EFEE49DFDE49CFC221D
:0C0AF800E6FC08E6FD08E6FE08E6FF222A
:0D0B0400E6FB08E6F908E6FA08E6CBF82261
:0C0B1100ECF608EDF608EEF608EFF62210
:100C1E00020B1DE493A3F8E493A34003F68001F2C4
:100C2E0008DFF48029E493A3F85407240CC8C333D7
:100C3E00C4540F4420C8834004F456800146F6DFA6
:100C4E00E4800B0102040810204080900CDFE47E4B
:100C5E00019360BCA3FF543F30E509541FFEE4939B
:100C6E00A360010ECF54C025E060A840B8E493A362
:100C7E00FAE493A3F8E493A3C8C582C8CAC583CA8D
:100C8E00F0A3C8C582C8CAC583CADFE9DEE780BE45
:010D1D0000D5
:00000001FF
