:10062D0041444320436F6E6E656374696E6700418C
:09063D0044432056616C75650010
:1004ED00021D00000C1FB61DC1C13F7FFFB1B61D1F
:1004FD00C1C10C2B3EA721473EB1BD713EA721477F
:10050D000C11B69DC26C3F80004FB69DC26C02436C
:0E051D000000040D0000000004450000000076
:03000B00020003ED
:03000300B2B7325F
:1004AC00C291D2927F017E001204CDC2920F12042F
:1004BC00CDE9C454F0FFE590540F4FF590D2927FE4
:0104CC00012E
:1004CD00E4FDFCC3ED9FEC9E5015E4FBFA0BBB0065
:0F04DD00010AEB64704A70F50DBD00010C80E45C
:0104EC0022ED
:1005DB00E4FDFCC3ED9FEC9E5015E4FBFA0BBB0056
:0F05EB00010AEB64014A70F50DBD00010C80E4BC
:0105FA0022DE
:1005BA00E4F51DF51ED2B3D2B27F50FE1205DBC29E
:1005CA00B3C2B220B1FD30B1FDAF80751D008F1EE0
:0105DA0022FE
:1005FB00A907E954F0FFE590540F4FF590C2901204
:09060B0004ACC2927F050204CD8B
:10061400A907E954F0FFE590540F4FF590D29012DA
:0906240004ACC2927F050204CD72
:060565008B4E8A4F895005
:10056B00E4F551F552AB4EAA4FA9508552828551F5
:10057B00831202CBFFFD3395E04D600D120614057F
:09058B0052E55270E0055180DCDC
:010594002244
:10052C008F498D4A8B4B8A4C894DEF3395E04F7038
:10053C0008E54A540F44808013AF49EF3395E0FE31
:10054C00EF64014E700AE54A540F44C0FF1205FBDC
:09055C00AB4BAA4CA94D02056548
:100595007F147E001204CD7F021205FB7F28120511
:1005A500FB7F0C1205FB7F061205FB7F011205FB85
:0505B5007F800205FB40
:0A0646007F011205FB7F800205FB17
:0100060022D7
:10032B00120595D2B1C2B3C2B0C2B27BFF7A0679C5
:10033B002D1205657FF47E011204CD1206467BFF5C
:10034B007A06793C120565E4F543F5441205BAAC1F
:10035B001DAD1EEC120211E54425E025E02437F813
:10036B0012031F0544E54470020543C39403E543A0
:10037B006480948040D6E4F543F544AB10AA0FA9F2
:10038B000EA80DC000C001C002C003AF44C374026D
:10039B009F25E025E02437F8120312C000EF25E07B
:1003AB0025E02411F8120306D000120106D003D069
:1003BB0002D001D0001200158F108E0F8D0E8C0DF8
:1003CB000544E544700205436403454370AD1205D3
:1003DB00BA854248854147854046853F45853E4223
:1003EB00853D41853C40853B3F853A3E85393D8582
:1003FB00383C85373BAC1DAD1EEC1202118F3A8E8B
:10040B00398D388C37AF10AE0FAD0EAC0D12024AD2
:05041B008FA002035256
:10000E000202B6E86480F8E933E83360110460F068
:10001E00ED33EC337009E8FCE9FDEAFEEBFF220458
:10002E0060DED3EB9FEA9EE99DE8C2E78CF0C2F753
:10003E0095F0400CE8CCF8E9CDF9EACEFAEBCFFB1F
:10004E0012028185D0F05804700320D5B3E80470F5
:10005E00075002B2D50202C092D5EC0460F7E4CC90
:10006E00C0E0C398F8603B94186008400DD0E0FBE8
:10007E00020298E4FBFAC9FC8028E830E406E4C9E1
:10008E00FBE4CAFCE830E305E4C9CACBFCE854073C
:10009E006010F8C3E913F9EA13FAEB13FBEC13FC47
:1000AE00D8F130F52FC3E49CFCEF9BFFEE9AFEEDEA
:1000BE0099FDD0E0FBEF4E4D4C701222DB03020295
:1000CE00BDEC2CFCEF33FFEE33FEED33FDED30E7F0
:1000DE00EB020298EF2BFFEE3AFEED39FDD0E0FB7E
:1000EE0050130BBB00030202C0ED13FDEE13FEEF27
:0800FE0013FFEC13FC02029851
:10010600EC4D6011E8497017ED33EC3304600DE4F3
:10011600FCFFFEFD22E933E8330470F80202B61252
:10012600028158046009E4CC248150062850090253
:1001360002C02840030202BDC0E0EB4A7044B98009
:1001460006D0E0FB0202ACEF4E701CBD8008EBFF50
:10015600EAFEE9FD80EBE98DF0A4FEE5F00201EF91
:10016600E9CDF9EAFEEBFFEF89F0A4FCE5F0CE89D4
:10017600F0A42EFFE435F0CD89F0A42DFEE435F091
:100186008067EF4E7005BD80D780C3EF8BF0A4ACBF
:10019600F0EE8BF0A42CFCE435F0F8EF8AF0A42CFA
:1001A600E5F038FCE433CB8DF0A42CFCE5F03BF80D
:1001B600EE8AF0A42CFCE5F038F8E433CF89F0A4FD
:1001C6002CFCE5F038CF3400CE89F0A42FFFE5F003
:1001D6003EFEE433C98DF0A42EFEE5F039CD8AF05B
:1001E600A42FFFE5F03EFEE43DFD33D0E0FB5007D3
:1001F6000BBB000F0202C0EC2CFCEF33FFEE33FE0C
:06020600ED33FD02029839
:10020C0075F020800E75F010800575F0087D007E6D
:10021C00007F003392D530D5031202F8EC33401036
:10022C00EF33FFEE33FEED33FDEC33FCD5F0ED2276
:0E023C00E5F0247EA2D513CC92E7CDCEFF22B2
:10024A00EDD2E7CD33EC3392D524814006E4FFFEAC
:10025A00FDFC22FCE4CFCECDCC24E0501174FF800B
:10026A00EDC3CC13CCCD13CDCE13CECF13CF0470A8
:07027A00F030D5DE0202F8AE
:10028100E9D2E7C933E833F892D5EDD2E7CD33ECC3
:0702910033FC5002B2D5223C
:10029800EC30E7100FBF000C0EBE00080DBD0004C7
:1002A8000BEB6014A2D5EB13FCED92E7FD2274FF73
:1002B800FCFDFEFF22E480F8A2D574FF13FC7D80CC
:0302C800E480EFE0
:03000000020420D7
:0C042000787FE4F6D8FD75815202046775
:1002CB00BB010CE58229F582E5833AF583E02250E8
:1002DB0006E92582F8E622BBFE06E92582F8E22232
:0D02EB00E58229F582E5833AF583E493224C
:0E02F800C3E49FFFE49EFEE49DFDE49CFC2217
:0C030600E6FC08E6FD08E6FE08E6FF2223
:0D031200E6FB08E6F908E6FA08E6CBF8225B
:0C031F00ECF608EDF608EEF608EFF6220A
:10042C0002032BE493A3F8E493A34003F68001F2B8
:10043C0008DFF48029E493A3F85407240CC8C333D1
:10044C00C4540F4420C8834004F456800146F6DFA0
:10045C00E4800B01020408102040809004EDE47E3F
:10046C00019360BCA3FF543F30E509541FFEE49395
:10047C00A360010ECF54C025E060A840B8E493A35C
:10048C00FAE493A3F8E493A3C8C582C8CAC583CA87
:10049C00F0A3C8C582C8CAC583CADFE9DEE780BE3F
:01052B0000CF
:00000001FF
