:100E600041444320436F6E6E656374696E67004151
:100E700044432056616C75650048696768004C6F93
:080E800077004E6F74636800F7
:100DB800021D00000C1FB61DC1C13F7FFFB1B61D4B
:100DC800C1C10C2B3EA721473EB1BD713EA72147AB
:100DD8000C11B69DC26C3F80004FB69DC26C024399
:0E0DE8000000040D00000000044500000000A3
:03000B00020F2AB7
:030F2A00B2B73229
:100D7700C291D2927F017E00120D98C2920F120D7E
:100D870098E9C454F0FFE590540F4FF590D2927F45
:010D9700015A
:100D9800E4FDFCC3ED9FEC9E5015E4FBFA0BBB0091
:0F0DA800010AEB64704A70F50DBD00010C80E488
:010DB7002219
:100ECE00E4FDFCC3ED9FEC9E5015E4FBFA0BBB005A
:0F0EDE00010AEB64014A70F50DBD00010C80E4C0
:010EED0022E2
:100EAD00E4F51DF51ED2B3D2B27F50FE120ECEC2A6
:100EBD00B3C2B220B1FD30B1FDAF80751D008F1EE4
:010ECD002202
:100EEE00A907E954F0FFE590540F4FF590C2901208
:090EFE000D77C2927F05020D98E8
:100F0700A907E954F0FFE590540F4FF590D29012DE
:090F17000D77C2927F05020D98CE
:060E30008B4E8A4F895031
:100E3600E4F551F552AB4EAA4FA950855282855121
:100E460083120ABDFFFD3395E04D600D120F0705B5
:090E560052E55270E0055180DC08
:010E5F002270
:100DF7008F498D4A8B4B8A4C894DEF3395E04F7065
:100E070008E54A540F44808013AF49EF3395E0FE5D
:100E1700EF64014E700AE54A540F44C0FF120EEE0C
:090E2700AB4BAA4CA94D020E30A0
:100E88007F147E00120D987F02120EEE7F28120E3C
:100E9800EE7F0C120EEE7F06120EEE7F01120EEEA2
:050EA8007F80020EEE48
:0A0F20007F01120EEE7F80020EEE3C
:100B1D008F4EE4F543F544120EADAC1DAD1EEC1237
:100B2D000A03E54425E025E02437F8120B110544AE
:100B3D00E54470020543C39403E54364809480400B
:100B4D00D6E4F543F544E54EB44845AB10AA0FA9DC
:100B5D000EA80DC000C001C002C003AF44C3740293
:100B6D009F25E025E02437F8120B04C000EF25E0A7
:100B7D0025E0241FF8120AF8D0001208F8D003D08F
:100B8D0002D001D0001208078F108E0F8D0E8C0D24
:100B9D00E54EB44C45AB10AA0FA90EA80DC000C070
:100BAD0001C002C003AF44C374029F25E025E024B9
:100BBD0037F8120B04C000EF25E025E0242BF812C6
:100BCD000AF8D0001208F8D003D002D001D00012DC
:100BDD0008078F108E0F8D0E8C0DE54EB44E45AB64
:100BED0010AA0FA90EA80DC000C001C002C003AF0E
:100BFD0044C374029F25E025E02437F8120B04C08E
:100C0D0000EF25E025E02411F8120AF8D0001208B3
:100C1D00F8D003D002D001D0001208078F108E0F2C
:100C2D008D0E8C0D0544E544700205436403454368
:100C3D006003020B53AF10AE0FAD0EAC0D120A3C9C
:100C4D008FA0120EAD853E42853D41853C40853BD2
:100C5D003F853A3E85393D85383C85373BAC1DADEA
:0E0C6D001EEC120A038F3A8E398D388C372216
:100D0700C2B6C2B5C2B4120E88D2B1C2B3C2B0C2A3
:100D1700B27BFF7A0E7960120E307FF47E01120DDE
:100D270098120F207BFF7A0E796F803730B6107FCD
:100D370048120B1D120F207BFF7A0E797980243021
:100D4700B5107F4C120B1D120F207BFF7A0E797E98
:100D5700801130B4137F4E120B1D120F207BFF7AC8
:100D67000E7982120E3080C4120EAD851EA080BC93
:10080000020AA8E86480F8E933E83360110460F074
:10081000ED33EC337009E8FCE9FDEAFEEBFF22045E
:1008200060DED3EB9FEA9EE99DE8C2E78CF0C2F759
:1008300095F0400CE8CCF8E9CDF9EACEFAEBCFFB25
:10084000120A7385D0F05804700320D5B3E8047001
:10085000075002B2D5020AB292D5EC0460F7E4CC9C
:10086000C0E0C398F8603B94186008400DD0E0FBEE
:10087000020A8AE4FBFAC9FC8028E830E406E4C9ED
:10088000FBE4CAFCE830E305E4C9CACBFCE8540742
:100890006010F8C3E913F9EA13FAEB13FBEC13FC4D
:1008A000D8F130F52FC3E49CFCEF9BFFEE9AFEEDF0
:1008B00099FDD0E0FBEF4E4D4C701222DB03020A93
:1008C000AFEC2CFCEF33FFEE33FEED33FDED30E704
:1008D000EB020A8AEF2BFFEE3AFEED39FDD0E0FB8A
:1008E00050130BBB0003020AB2ED13FDEE13FEEF33
:0808F00013FFEC13FC020A8A5D
:1008F800EC4D6011E8497017ED33EC3304600DE4FA
:10090800FCFFFEFD22E933E8330470F8020AA8125E
:100918000A7358046009E4CC24815006285009025F
:100928000AB2284003020AAFC0E0EB4A7044B9801B
:1009380006D0E0FB020A9EEF4E701CBD8008EBFF5C
:10094800EAFEE9FD80EBE98DF0A4FEE5F00209E19D
:10095800E9CDF9EAFEEBFFEF89F0A4FCE5F0CE89DA
:10096800F0A42EFFE435F0CD89F0A42DFEE435F097
:100978008067EF4E7005BD80D780C3EF8BF0A4ACC5
:10098800F0EE8BF0A42CFCE435F0F8EF8AF0A42C00
:10099800E5F038FCE433CB8DF0A42CFCE5F03BF813
:1009A800EE8AF0A42CFCE5F038F8E433CF89F0A403
:1009B8002CFCE5F038CF3400CE89F0A42FFFE5F009
:1009C8003EFEE433C98DF0A42EFEE5F039CD8AF061
:1009D800A42FFFE5F03EFEE43DFD33D0E0FB5007D9
:1009E8000BBB000F020AB2EC2CFCEF33FFEE33FE18
:0609F800ED33FD020A8A46
:1009FE0075F020800E75F010800575F0087D007E74
:100A0E00007F003392D530D503120AEAEC33401042
:100A1E00EF33FFEE33FEED33FDEC33FCD5F0ED227C
:0E0A2E00E5F0247EA2D513CC92E7CDCEFF22B8
:100A3C00EDD2E7CD33EC3392D524814006E4FFFEB2
:100A4C00FDFC22FCE4CFCECDCC24E0501174FF8011
:100A5C00EDC3CC13CCCD13CDCE13CECF13CF0470AE
:070A6C00F030D5DE020AEABA
:100A7300E9D2E7C933E833F892D5EDD2E7CD33ECC9
:070A830033FC5002B2D52242
:100A8A00EC30E7100FBF000C0EBE00080DBD0004CD
:100A9A000BEB6014A2D5EB13FCED92E7FD2274FF79
:100AAA00FCFDFEFF22E480F8A2D574FF13FC7D80D2
:030ABA00E480EFE6
:03000000020C7B74
:0C0C7B00787FE4F6D8FD758152020CC2AF
:100ABD00BB010CE58229F582E5833AF583E02250EE
:100ACD0006E92582F8E622BBFE06E92582F8E22238
:0D0ADD00E58229F582E5833AF583E4932252
:0E0AEA00C3E49FFFE49EFEE49DFDE49CFC221D
:0C0AF800E6FC08E6FD08E6FE08E6FF222A
:0D0B0400E6FB08E6F908E6FA08E6CBF82261
:0C0B1100ECF608EDF608EEF608EFF62210
:100C8700020D07E493A3F8E493A34003F68001F26F
:100C970008DFF48029E493A3F85407240CC8C3336E
:100CA700C4540F4420C8834004F456800146F6DF3D
:100CB700E4800B0102040810204080900DB8E47E08
:100CC700019360BCA3FF543F30E509541FFEE49332
:100CD700A360010ECF54C025E060A840B8E493A3F9
:100CE700FAE493A3F8E493A3C8C582C8CAC583CA24
:100CF700F0A3C8C582C8CAC583CADFE9DEE780BEDC
:010DF60000FC
:00000001FF
